:020000040000FA
:10000000680400206D02000071020000730200000D
:100010007502000077020000790200000000000075
:100020000000000000000000000000007B02000053
:100030007D020000000000007F020000810200003D
:10004000830200008302000083020000830200009C
:10005000830200008302000083020000830200008C
:10006000830200008302000083020000830200007C
:10007000830200008302000083020000830200006C
:10008000830200008302000083020000830200005C
:10009000830200008302000083020000830200004C
:1000A000830200008302000083020000830200003C
:1000B0008302000083020000850400008302000028
:1000C000830200008302000083020000830200001C
:1000D000830200008302000083020000830200000C
:1000E00083020000830200008302000083020000FC
:1000F00083020000830200008302000083020000EC
:1001000083020000830200008302000083020000DB
:1001100083020000830200008302000083020000CB
:1001200083020000830200008302000083020000BB
:1001300083020000830200008302000083020000AB
:1001400000000000000000000000000000000000AF
:10015000830200008302000083020000830200008B
:10016000000000000000000000000000000000008F
:10017000000000000000000000000000000000007F
:10018000000000000000000000000000000000006F
:10019000000000000000000000000000000000005F
:1001A000000000000000000000000000000000004F
:1001B000830200008302000083020000830200002B
:1001C000830200008302000083020000830200001B
:1001D000830200008302000083020000830200000B
:1001E00083020000830200008302000083020000FB
:1001F00083020000830200008302000083020000EB
:10020000830200008302000083020000000000005F
:1002100083020000830200008302000083020000CA
:1002200083020000830200008302000083020000BA
:1002300083020000830200008302000083020000AA
:10024000830200008302000083020000830200009A
:10025000830200008302000083020000830200008A
:1002600083020000830200008302000000F00AB84D
:10027000FEE7FEE7FEE7FEE7FEE7FEE7FEE7FEE756
:10028000FEE7FEE700F002F800F042F814A696E858
:10029000000CB244B344DA4501D100F039F8BAE8B1
:1002A0000F000FA696E83000A5EB040504EB060747
:1002B000AAEB0704A7F101074FEA15154FEA34141A
:1002C000A4F10104AC4201D300F022F813F0010FB5
:1002D00018BFFB1A43F0010300F001F8DBE71847F1
:1002E00008040000180400007047000000230024E8
:1002F00000250026103A28BF78C1FBD8520728BF36
:1003000030C148BF0B6070471FB51FBD10B510BD91
:1003100000F02EF81146FFF7F7FF00F0ABF900F000
:100320004CF803B4FFF7F2FF03BC00F04FF80000F5
:1003300072B6704762B67047EFF3108072B67047BE
:1003400080F31088704730BF704702480249014A65
:10035000024B7047680000206804002068000020FD
:100360007047704770470000004870470000002049
:100370007546FFF7F9FFAE4605006946534620F083
:100380000700854618B020B5FFF7DFFFBDE8204025
:100390004FF000064FF000074FF000084FF0000B41
:1003A000AC46ACE8C009ACE8C009ACE8C009ACE8B0
:1003B000C00921F007018D46704710B50446AFF320
:1003C00000802046BDE81040FFF7ABBF0149182070
:1003D000ABBEFEE7260002007047000082B001902D
:1003E00000200090FFE700980199884215D2FFE7AE
:1003F00047F22401C4F2030101200860FFE747F23D
:100400001C00C4F203000068C00708B9FFE7F6E764
:10041000FFE7009801300090E5E702B07047000068
:1004200080B582B0ADF80600BDF9060010F15B0F93
:1004300005DCFFE74FF6A670ADF80600FFE7BDF953
:1004400006005B2804DBFFE75A20ADF80600FFE753
:10045000BDF906006A464FF4FA7111606FF0590158
:100460005A22FA2300F01EF9ADF80400BDF804107A
:1004700041F28730401A48F25C01C4F20201086080
:1004800002B080BD45F21840C4F202000068C00608
:1004900000280DD5FFE740F26001C2F20001012003
:1004A000087045F21C41C4F2020110200860FFE709
:1004B00045F21840C4F202000068C00760B1FFE7CF
:1004C00040F26101C2F200010120087045F21C41B6
:1004D000C4F202010860FFE7704700004EF240617D
:1004E000C4F20F01086840F0010008604EF2086194
:1004F000C4F20F01086840F002000860FFE74EF602
:100500000820C4F20F0000688007002801D4FFE72C
:10051000F5E74EF26001C4F20F01086840F4801064
:1005200008600868052262F353400860FFE74EF652
:100530004020C4F20F000068C00708B9FFE7F6E7E3
:1005400045F22041C4F20001086840F080000860D4
:1005500045F22C51C4F20001086820F07040086098
:10056000086840F08040086045F22851C4F200015C
:10057000086820F08000086045F21C51C4F20001B8
:10058000086840F08000086045F20851C4F200019C
:10059000086840F08000086048F24001C4F202019F
:1005A0000020086048F26402C4F2020240F60C0027
:1005B000106048F25002C4F2020241F2873010602B
:1005C00048F25C02C4F2020241F210201060086896
:1005D00040F00100086048F20801C4F20201086816
:1005E00040F002000860704780B500F003F8FFF7A4
:1005F00075FF80BD4EF25C61C4F20F01086840F0E7
:1006000002000860FFE74EF25C60C4F20F00006871
:1006100000F00200022801D0FFE7F4E747F20C01E6
:10062000C4F20301086820F00100086047F20002EC
:10063000C4F203020020106047F20403C4F2030373
:1006400002221A6047F23802C4F20302106047F235
:100650002802C4F2030243F67F60106047F22402CE
:10066000C4F2030201201060086840F00100086035
:100670007047000080B582B000200190FFF7B4FF02
:10068000FFE76FF02C00FFF7CBFE4FF47A7000907D
:10069000FFF7A4FE2D20FFF7C3FE0098FFF79EFE94
:1006A000EFE7000080B583B084460598ADF80AC036
:1006B000ADF80810ADF80620ADF80430ADF8020032
:1006C000BDF90A00BDF90830C01ABDF90220BDF914
:1006D0000410521A5043BDF90620D21A90FBF2F0D2
:1006E000084400B203B080BDF806000000000020FE
:0806F00068040000EC020000A8
:040000050000026D88
:00000001FF
